{
  "fileName": "BrightWaves.sol",
  "contractName": "BrightWaves",
  "source": "//SPDX-License-Identifier: Unlicensed\r\npragma solidity ^0.6.8;\r\n\r\n//import \"@openzeppelin/upgrades/contracts/Initializable.sol\";\r\nimport \"@openzeppelin/contracts-ethereum-package/contracts/token/ERC721/ERC721.sol\";\r\nimport \"@openzeppelin/contracts-ethereum-package/contracts/access/Ownable.sol\";\r\nimport \"@openzeppelin/contracts-ethereum-package/contracts/utils/Counters.sol\";\r\n\r\ncontract BrightWaves is ERC721UpgradeSafe, OwnableUpgradeSafe {\r\n    using Counters for Counters.Counter;\r\n\r\n    Counters.Counter private _tokenIds;\r\n    Counters.Counter public _collectionCount;\r\n\r\n    event NewCollection(uint256 id, string title);\r\n\r\n    struct Collection {\r\n        string title;\r\n        uint256 count;\r\n    }\r\n\r\n    struct Artwork {\r\n        string hash;\r\n        uint256 collection;\r\n    }\r\n\r\n    // mapping to store art IPFS hashes\r\n    mapping(uint256 => Artwork) internal artwork;\r\n    mapping(uint256 => Collection) internal collections;\r\n\r\n    /**\r\n     * @dev Contract constructor.\r\n     * @notice Constructor inherits ERC721\r\n     */\r\n    // constructor(string memory baseURI) public ERC721(\"Bright Waves\", \"~BW~\") {\r\n    //     _setBaseURI(baseURI);\r\n    // }\r\n\r\n    /**\r\n     * @dev Contract initializer.\r\n     * @notice Constructor inherits ERC721 and Initializable\r\n     */\r\n    function initialize(string memory baseURI) public initializer {\r\n        __ERC721_init_unchained(\"Bright Waves\", \"~BW~\");\r\n        // ERC721UpgradeSafe.initialize(\"Bright Waves\", \"~BW~\");\r\n        // OwnableUpgradeSafe.initialize();\r\n        //_setBaseURI(baseURI);\r\n    }\r\n\r\n    // create a new collection\r\n    function newCollection(string calldata title)\r\n        external\r\n        onlyOwner()\r\n        returns (uint256)\r\n    {\r\n        _collectionCount.increment();\r\n        uint256 id = _collectionCount.current();\r\n        collections[id] = Collection(title, 0);\r\n        emit NewCollection(id, title);\r\n        return id;\r\n    }\r\n\r\n    // mint a piece of artwork\r\n    function mintArtwork(\r\n        string calldata uri,\r\n        string calldata hash,\r\n        uint256 collection\r\n    ) external onlyOwner() returns (uint256) {\r\n        // check the collection exists\r\n        require(\r\n            (collection > 0 && collection <= _collectionCount.current()),\r\n            \"Nonexistant Collection ID\"\r\n        );\r\n        uint256 id = _tokenIds.current();\r\n        artwork[id] = Artwork(hash, collection);\r\n        _safeMint(msg.sender, id);\r\n        _tokenIds.increment();\r\n        collections[collection].count++;\r\n        _setTokenURI(id, uri);\r\n        return id;\r\n    }\r\n\r\n    // get artwork\r\n    function getArtwork(uint256 id)\r\n        external\r\n        view\r\n        returns (string memory, uint256)\r\n    {\r\n        Artwork memory a = artwork[id];\r\n        return (a.hash, a.collection);\r\n    }\r\n\r\n    // get collection\r\n    function getCollection(uint256 id)\r\n        external\r\n        view\r\n        returns (string memory, uint256)\r\n    {\r\n        Collection memory c = collections[id];\r\n        return (c.title, c.count);\r\n    }\r\n}\r\n",
  "sourcePath": "contracts/BrightWaves.sol",
  "abi": [
    {
      "anonymous": false,
      "inputs": [
        {
          "indexed": true,
          "internalType": "address",
          "name": "owner",
          "type": "address"
        },
        {
          "indexed": true,
          "internalType": "address",
          "name": "approved",
          "type": "address"
        },
        {
          "indexed": true,
          "internalType": "uint256",
          "name": "tokenId",
          "type": "uint256"
        }
      ],
      "name": "Approval",
      "type": "event"
    },
    {
      "anonymous": false,
      "inputs": [
        {
          "indexed": true,
          "internalType": "address",
          "name": "owner",
          "type": "address"
        },
        {
          "indexed": true,
          "internalType": "address",
          "name": "operator",
          "type": "address"
        },
        {
          "indexed": false,
          "internalType": "bool",
          "name": "approved",
          "type": "bool"
        }
      ],
      "name": "ApprovalForAll",
      "type": "event"
    },
    {
      "anonymous": false,
      "inputs": [
        {
          "indexed": false,
          "internalType": "uint256",
          "name": "id",
          "type": "uint256"
        },
        {
          "indexed": false,
          "internalType": "string",
          "name": "title",
          "type": "string"
        }
      ],
      "name": "NewCollection",
      "type": "event"
    },
    {
      "anonymous": false,
      "inputs": [
        {
          "indexed": true,
          "internalType": "address",
          "name": "previousOwner",
          "type": "address"
        },
        {
          "indexed": true,
          "internalType": "address",
          "name": "newOwner",
          "type": "address"
        }
      ],
      "name": "OwnershipTransferred",
      "type": "event"
    },
    {
      "anonymous": false,
      "inputs": [
        {
          "indexed": true,
          "internalType": "address",
          "name": "from",
          "type": "address"
        },
        {
          "indexed": true,
          "internalType": "address",
          "name": "to",
          "type": "address"
        },
        {
          "indexed": true,
          "internalType": "uint256",
          "name": "tokenId",
          "type": "uint256"
        }
      ],
      "name": "Transfer",
      "type": "event"
    },
    {
      "inputs": [],
      "name": "_collectionCount",
      "outputs": [
        {
          "internalType": "uint256",
          "name": "_value",
          "type": "uint256"
        }
      ],
      "stateMutability": "view",
      "type": "function"
    },
    {
      "inputs": [
        {
          "internalType": "address",
          "name": "to",
          "type": "address"
        },
        {
          "internalType": "uint256",
          "name": "tokenId",
          "type": "uint256"
        }
      ],
      "name": "approve",
      "outputs": [],
      "stateMutability": "nonpayable",
      "type": "function"
    },
    {
      "inputs": [
        {
          "internalType": "address",
          "name": "owner",
          "type": "address"
        }
      ],
      "name": "balanceOf",
      "outputs": [
        {
          "internalType": "uint256",
          "name": "",
          "type": "uint256"
        }
      ],
      "stateMutability": "view",
      "type": "function"
    },
    {
      "inputs": [],
      "name": "baseURI",
      "outputs": [
        {
          "internalType": "string",
          "name": "",
          "type": "string"
        }
      ],
      "stateMutability": "view",
      "type": "function"
    },
    {
      "inputs": [
        {
          "internalType": "uint256",
          "name": "tokenId",
          "type": "uint256"
        }
      ],
      "name": "getApproved",
      "outputs": [
        {
          "internalType": "address",
          "name": "",
          "type": "address"
        }
      ],
      "stateMutability": "view",
      "type": "function"
    },
    {
      "inputs": [
        {
          "internalType": "uint256",
          "name": "id",
          "type": "uint256"
        }
      ],
      "name": "getArtwork",
      "outputs": [
        {
          "internalType": "string",
          "name": "",
          "type": "string"
        },
        {
          "internalType": "uint256",
          "name": "",
          "type": "uint256"
        }
      ],
      "stateMutability": "view",
      "type": "function"
    },
    {
      "inputs": [
        {
          "internalType": "uint256",
          "name": "id",
          "type": "uint256"
        }
      ],
      "name": "getCollection",
      "outputs": [
        {
          "internalType": "string",
          "name": "",
          "type": "string"
        },
        {
          "internalType": "uint256",
          "name": "",
          "type": "uint256"
        }
      ],
      "stateMutability": "view",
      "type": "function"
    },
    {
      "inputs": [
        {
          "internalType": "string",
          "name": "baseURI",
          "type": "string"
        }
      ],
      "name": "initialize",
      "outputs": [],
      "stateMutability": "nonpayable",
      "type": "function"
    },
    {
      "inputs": [
        {
          "internalType": "address",
          "name": "owner",
          "type": "address"
        },
        {
          "internalType": "address",
          "name": "operator",
          "type": "address"
        }
      ],
      "name": "isApprovedForAll",
      "outputs": [
        {
          "internalType": "bool",
          "name": "",
          "type": "bool"
        }
      ],
      "stateMutability": "view",
      "type": "function"
    },
    {
      "inputs": [
        {
          "internalType": "string",
          "name": "uri",
          "type": "string"
        },
        {
          "internalType": "string",
          "name": "hash",
          "type": "string"
        },
        {
          "internalType": "uint256",
          "name": "collection",
          "type": "uint256"
        }
      ],
      "name": "mintArtwork",
      "outputs": [
        {
          "internalType": "uint256",
          "name": "",
          "type": "uint256"
        }
      ],
      "stateMutability": "nonpayable",
      "type": "function"
    },
    {
      "inputs": [],
      "name": "name",
      "outputs": [
        {
          "internalType": "string",
          "name": "",
          "type": "string"
        }
      ],
      "stateMutability": "view",
      "type": "function"
    },
    {
      "inputs": [
        {
          "internalType": "string",
          "name": "title",
          "type": "string"
        }
      ],
      "name": "newCollection",
      "outputs": [
        {
          "internalType": "uint256",
          "name": "",
          "type": "uint256"
        }
      ],
      "stateMutability": "nonpayable",
      "type": "function"
    },
    {
      "inputs": [],
      "name": "owner",
      "outputs": [
        {
          "internalType": "address",
          "name": "",
          "type": "address"
        }
      ],
      "stateMutability": "view",
      "type": "function"
    },
    {
      "inputs": [
        {
          "internalType": "uint256",
          "name": "tokenId",
          "type": "uint256"
        }
      ],
      "name": "ownerOf",
      "outputs": [
        {
          "internalType": "address",
          "name": "",
          "type": "address"
        }
      ],
      "stateMutability": "view",
      "type": "function"
    },
    {
      "inputs": [],
      "name": "renounceOwnership",
      "outputs": [],
      "stateMutability": "nonpayable",
      "type": "function"
    },
    {
      "inputs": [
        {
          "internalType": "address",
          "name": "from",
          "type": "address"
        },
        {
          "internalType": "address",
          "name": "to",
          "type": "address"
        },
        {
          "internalType": "uint256",
          "name": "tokenId",
          "type": "uint256"
        }
      ],
      "name": "safeTransferFrom",
      "outputs": [],
      "stateMutability": "nonpayable",
      "type": "function"
    },
    {
      "inputs": [
        {
          "internalType": "address",
          "name": "from",
          "type": "address"
        },
        {
          "internalType": "address",
          "name": "to",
          "type": "address"
        },
        {
          "internalType": "uint256",
          "name": "tokenId",
          "type": "uint256"
        },
        {
          "internalType": "bytes",
          "name": "_data",
          "type": "bytes"
        }
      ],
      "name": "safeTransferFrom",
      "outputs": [],
      "stateMutability": "nonpayable",
      "type": "function"
    },
    {
      "inputs": [
        {
          "internalType": "address",
          "name": "operator",
          "type": "address"
        },
        {
          "internalType": "bool",
          "name": "approved",
          "type": "bool"
        }
      ],
      "name": "setApprovalForAll",
      "outputs": [],
      "stateMutability": "nonpayable",
      "type": "function"
    },
    {
      "inputs": [
        {
          "internalType": "bytes4",
          "name": "interfaceId",
          "type": "bytes4"
        }
      ],
      "name": "supportsInterface",
      "outputs": [
        {
          "internalType": "bool",
          "name": "",
          "type": "bool"
        }
      ],
      "stateMutability": "view",
      "type": "function"
    },
    {
      "inputs": [],
      "name": "symbol",
      "outputs": [
        {
          "internalType": "string",
          "name": "",
          "type": "string"
        }
      ],
      "stateMutability": "view",
      "type": "function"
    },
    {
      "inputs": [
        {
          "internalType": "uint256",
          "name": "index",
          "type": "uint256"
        }
      ],
      "name": "tokenByIndex",
      "outputs": [
        {
          "internalType": "uint256",
          "name": "",
          "type": "uint256"
        }
      ],
      "stateMutability": "view",
      "type": "function"
    },
    {
      "inputs": [
        {
          "internalType": "address",
          "name": "owner",
          "type": "address"
        },
        {
          "internalType": "uint256",
          "name": "index",
          "type": "uint256"
        }
      ],
      "name": "tokenOfOwnerByIndex",
      "outputs": [
        {
          "internalType": "uint256",
          "name": "",
          "type": "uint256"
        }
      ],
      "stateMutability": "view",
      "type": "function"
    },
    {
      "inputs": [
        {
          "internalType": "uint256",
          "name": "tokenId",
          "type": "uint256"
        }
      ],
      "name": "tokenURI",
      "outputs": [
        {
          "internalType": "string",
          "name": "",
          "type": "string"
        }
      ],
      "stateMutability": "view",
      "type": "function"
    },
    {
      "inputs": [],
      "name": "totalSupply",
      "outputs": [
        {
          "internalType": "uint256",
          "name": "",
          "type": "uint256"
        }
      ],
      "stateMutability": "view",
      "type": "function"
    },
    {
      "inputs": [
        {
          "internalType": "address",
          "name": "from",
          "type": "address"
        },
        {
          "internalType": "address",
          "name": "to",
          "type": "address"
        },
        {
          "internalType": "uint256",
          "name": "tokenId",
          "type": "uint256"
        }
      ],
      "name": "transferFrom",
      "outputs": [],
      "stateMutability": "nonpayable",
      "type": "function"
    },
    {
      "inputs": [
        {
          "internalType": "address",
          "name": "newOwner",
          "type": "address"
        }
      ],
      "name": "transferOwnership",
      "outputs": [],
      "stateMutability": "nonpayable",
      "type": "function"
    }
  ],
  "bytecode": "0x608060405234801561001057600080fd5b50613cf0806100206000396000f3fe608060405234801561001057600080fd5b506004361061018e5760003560e01c80636352211e116100de578063a22cb46511610097578063c87b56dd11610071578063c87b56dd14610af9578063e985e9c514610ba0578063f2fde38b14610c1a578063f62d188814610c5e5761018e565b8063a22cb46514610917578063afb4c79514610967578063b88d4fde146109f45761018e565b80636352211e146107235780636c0360eb1461077b57806370a08231146107fe578063715018a6146108565780638da5cb5b1461086057806395d89b41146108945761018e565b8063234917691161014b57806342842e0e1161012557806342842e0e146105a75780634f6ccce7146106155780635828c24b146106575780635a1f3c28146106755761018e565b806323491769146103eb57806323b872dd146104d75780632f745c59146105455761018e565b806301ffc9a71461019357806306fdde03146101f6578063081812fc14610279578063095ea7b3146102d1578063167ddf6e1461031f57806318160ddd146103cd575b600080fd5b6101de600480360360208110156101a957600080fd5b8101908080357bffffffffffffffffffffffffffffffffffffffffffffffffffffffff19169060200190929190505050610d19565b60405180821515815260200191505060405180910390f35b6101fe610d81565b6040518080602001828103825283818151815260200191508051906020019080838360005b8381101561023e578082015181840152602081019050610223565b50505050905090810190601f16801561026b5780820380516001836020036101000a031916815260200191505b509250505060405180910390f35b6102a56004803603602081101561028f57600080fd5b8101908080359060200190929190505050610e23565b604051808273ffffffffffffffffffffffffffffffffffffffff16815260200191505060405180910390f35b61031d600480360360408110156102e757600080fd5b81019080803573ffffffffffffffffffffffffffffffffffffffff16906020019092919080359060200190929190505050610ebe565b005b61034b6004803603602081101561033557600080fd5b8101908080359060200190929190505050611002565b6040518080602001838152602001828103825284818151815260200191508051906020019080838360005b83811015610391578082015181840152602081019050610376565b50505050905090810190601f1680156103be5780820380516001836020036101000a031916815260200191505b50935050505060405180910390f35b6103d56110ee565b6040518082815260200191505060405180910390f35b6104c16004803603606081101561040157600080fd5b810190808035906020019064010000000081111561041e57600080fd5b82018360208201111561043057600080fd5b8035906020019184600183028401116401000000008311171561045257600080fd5b90919293919293908035906020019064010000000081111561047357600080fd5b82018360208201111561048557600080fd5b803590602001918460018302840111640100000000831117156104a757600080fd5b9091929391929390803590602001909291905050506110ff565b6040518082815260200191505060405180910390f35b610543600480360360608110156104ed57600080fd5b81019080803573ffffffffffffffffffffffffffffffffffffffff169060200190929190803573ffffffffffffffffffffffffffffffffffffffff1690602001909291908035906020019092919050505061138f565b005b6105916004803603604081101561055b57600080fd5b81019080803573ffffffffffffffffffffffffffffffffffffffff16906020019092919080359060200190929190505050611405565b6040518082815260200191505060405180910390f35b610613600480360360608110156105bd57600080fd5b81019080803573ffffffffffffffffffffffffffffffffffffffff169060200190929190803573ffffffffffffffffffffffffffffffffffffffff16906020019092919080359060200190929190505050611460565b005b6106416004803603602081101561062b57600080fd5b8101908080359060200190929190505050611480565b6040518082815260200191505060405180910390f35b61065f6114a3565b6040518082815260200191505060405180910390f35b6106a16004803603602081101561068b57600080fd5b81019080803590602001909291905050506114af565b6040518080602001838152602001828103825284818151815260200191508051906020019080838360005b838110156106e75780820151818401526020810190506106cc565b50505050905090810190601f1680156107145780820380516001836020036101000a031916815260200191505b50935050505060405180910390f35b61074f6004803603602081101561073957600080fd5b810190808035906020019092919050505061159b565b604051808273ffffffffffffffffffffffffffffffffffffffff16815260200191505060405180910390f35b6107836115d2565b6040518080602001828103825283818151815260200191508051906020019080838360005b838110156107c35780820151818401526020810190506107a8565b50505050905090810190601f1680156107f05780820380516001836020036101000a031916815260200191505b509250505060405180910390f35b6108406004803603602081101561081457600080fd5b81019080803573ffffffffffffffffffffffffffffffffffffffff169060200190929190505050611674565b6040518082815260200191505060405180910390f35b61085e611749565b005b6108686118d4565b604051808273ffffffffffffffffffffffffffffffffffffffff16815260200191505060405180910390f35b61089c6118fe565b6040518080602001828103825283818151815260200191508051906020019080838360005b838110156108dc5780820151818401526020810190506108c1565b50505050905090810190601f1680156109095780820380516001836020036101000a031916815260200191505b509250505060405180910390f35b6109656004803603604081101561092d57600080fd5b81019080803573ffffffffffffffffffffffffffffffffffffffff1690602001909291908035151590602001909291905050506119a0565b005b6109de6004803603602081101561097d57600080fd5b810190808035906020019064010000000081111561099a57600080fd5b8201836020820111156109ac57600080fd5b803590602001918460018302840111640100000000831117156109ce57600080fd5b9091929391929390505050611b56565b6040518082815260200191505060405180910390f35b610af760048036036080811015610a0a57600080fd5b81019080803573ffffffffffffffffffffffffffffffffffffffff169060200190929190803573ffffffffffffffffffffffffffffffffffffffff1690602001909291908035906020019092919080359060200190640100000000811115610a7157600080fd5b820183602082011115610a8357600080fd5b80359060200191846001830284011164010000000083111715610aa557600080fd5b91908080601f016020809104026020016040519081016040528093929190818152602001838380828437600081840152601f19601f820116905080830192505050505050509192919290505050611d46565b005b610b2560048036036020811015610b0f57600080fd5b8101908080359060200190929190505050611dbe565b6040518080602001828103825283818151815260200191508051906020019080838360005b83811015610b65578082015181840152602081019050610b4a565b50505050905090810190601f168015610b925780820380516001836020036101000a031916815260200191505b509250505060405180910390f35b610c0260048036036040811015610bb657600080fd5b81019080803573ffffffffffffffffffffffffffffffffffffffff169060200190929190803573ffffffffffffffffffffffffffffffffffffffff1690602001909291905050506120a7565b60405180821515815260200191505060405180910390f35b610c5c60048036036020811015610c3057600080fd5b81019080803573ffffffffffffffffffffffffffffffffffffffff16906020019092919050505061213b565b005b610d1760048036036020811015610c7457600080fd5b8101908080359060200190640100000000811115610c9157600080fd5b820183602082011115610ca357600080fd5b80359060200191846001830284011164010000000083111715610cc557600080fd5b91908080601f016020809104026020016040519081016040528093929190818152602001838380828437600081840152601f19601f82011690508083019250505050505050919291929050505061234b565b005b600060656000837bffffffffffffffffffffffffffffffffffffffffffffffffffffffff19167bffffffffffffffffffffffffffffffffffffffffffffffffffffffff1916815260200190815260200160002060009054906101000a900460ff169050919050565b6060609c8054600181600116156101000203166002900480601f016020809104026020016040519081016040528092919081815260200182805460018160011615610100020316600290048015610e195780601f10610dee57610100808354040283529160200191610e19565b820191906000526020600020905b815481529060010190602001808311610dfc57829003601f168201915b5050505050905090565b6000610e2e826124be565b610e83576040517f08c379a000000000000000000000000000000000000000000000000000000000815260040180806020018281038252602c815260200180613b8b602c913960400191505060405180910390fd5b609a600083815260200190815260200160002060009054906101000a900473ffffffffffffffffffffffffffffffffffffffff169050919050565b6000610ec98261159b565b90508073ffffffffffffffffffffffffffffffffffffffff168373ffffffffffffffffffffffffffffffffffffffff161415610f50576040517f08c379a0000000000000000000000000000000000000000000000000000000008152600401808060200182810382526021815260200180613c696021913960400191505060405180910390fd5b8073ffffffffffffffffffffffffffffffffffffffff16610f6f6124db565b73ffffffffffffffffffffffffffffffffffffffff161480610f9e5750610f9d81610f986124db565b6120a7565b5b610ff3576040517f08c379a0000000000000000000000000000000000000000000000000000000008152600401808060200182810382526038815260200180613ade6038913960400191505060405180910390fd5b610ffd83836124e3565b505050565b6060600061100e613942565b60fd6000858152602001908152602001600020604051806040016040529081600082018054600181600116156101000203166002900480601f0160208091040260200160405190810160405280929190818152602001828054600181600116156101000203166002900480156110c55780601f1061109a576101008083540402835291602001916110c5565b820191906000526020600020905b8154815290600101906020018083116110a857829003601f168201915b505050505081526020016001820154815250509050806000015181602001519250925050915091565b60006110fa609861259c565b905090565b60006111096124db565b73ffffffffffffffffffffffffffffffffffffffff1660c960009054906101000a900473ffffffffffffffffffffffffffffffffffffffff1673ffffffffffffffffffffffffffffffffffffffff16146111cb576040517f08c379a00000000000000000000000000000000000000000000000000000000081526004018080602001828103825260208152602001807f4f776e61626c653a2063616c6c6572206973206e6f7420746865206f776e657281525060200191505060405180910390fd5b6000821180156111e457506111e060fc6125b1565b8211155b611256576040517f08c379a00000000000000000000000000000000000000000000000000000000081526004018080602001828103825260198152602001807f4e6f6e6578697374616e7420436f6c6c656374696f6e2049440000000000000081525060200191505060405180910390fd5b600061126260fb6125b1565b9050604051806040016040528086868080601f016020809104026020016040519081016040528093929190818152602001838380828437600081840152601f19601f8201169050808301925050505050505081526020018481525060fd600083815260200190815260200160002060008201518160000190805190602001906112ec92919061395c565b506020820151816001015590505061130433826125bf565b61130e60fb6125dd565b60fe6000848152602001908152602001600020600101600081548092919060010191905055506113828188888080601f016020809104026020016040519081016040528093929190818152602001838380828437600081840152601f19601f820116905080830192505050505050506125f3565b8091505095945050505050565b6113a061139a6124db565b8261267d565b6113f5576040517f08c379a0000000000000000000000000000000000000000000000000000000008152600401808060200182810382526031815260200180613c8a6031913960400191505060405180910390fd5b611400838383612771565b505050565b600061145882609760008673ffffffffffffffffffffffffffffffffffffffff1673ffffffffffffffffffffffffffffffffffffffff1681526020019081526020016000206129b490919063ffffffff16565b905092915050565b61147b83838360405180602001604052806000815250611d46565b505050565b6000806114978360986129ce90919063ffffffff16565b50905080915050919050565b60fc8060000154905081565b606060006114bb6139dc565b60fe6000858152602001908152602001600020604051806040016040529081600082018054600181600116156101000203166002900480601f0160208091040260200160405190810160405280929190818152602001828054600181600116156101000203166002900480156115725780601f1061154757610100808354040283529160200191611572565b820191906000526020600020905b81548152906001019060200180831161155557829003601f168201915b505050505081526020016001820154815250509050806000015181602001519250925050915091565b60006115cb82604051806060016040528060298152602001613b406029913960986129fa9092919063ffffffff16565b9050919050565b6060609f8054600181600116156101000203166002900480601f01602080910402602001604051908101604052809291908181526020018280546001816001161561010002031660029004801561166a5780601f1061163f5761010080835404028352916020019161166a565b820191906000526020600020905b81548152906001019060200180831161164d57829003601f168201915b5050505050905090565b60008073ffffffffffffffffffffffffffffffffffffffff168273ffffffffffffffffffffffffffffffffffffffff1614156116fb576040517f08c379a000000000000000000000000000000000000000000000000000000000815260040180806020018281038252602a815260200180613b16602a913960400191505060405180910390fd5b611742609760008473ffffffffffffffffffffffffffffffffffffffff1673ffffffffffffffffffffffffffffffffffffffff168152602001908152602001600020612a19565b9050919050565b6117516124db565b73ffffffffffffffffffffffffffffffffffffffff1660c960009054906101000a900473ffffffffffffffffffffffffffffffffffffffff1673ffffffffffffffffffffffffffffffffffffffff1614611813576040517f08c379a00000000000000000000000000000000000000000000000000000000081526004018080602001828103825260208152602001807f4f776e61626c653a2063616c6c6572206973206e6f7420746865206f776e657281525060200191505060405180910390fd5b600073ffffffffffffffffffffffffffffffffffffffff1660c960009054906101000a900473ffffffffffffffffffffffffffffffffffffffff1673ffffffffffffffffffffffffffffffffffffffff167f8be0079c531659141344cd1fd0a4f28419497f9722a3daafe3b4186f6b6457e060405160405180910390a3600060c960006101000a81548173ffffffffffffffffffffffffffffffffffffffff021916908373ffffffffffffffffffffffffffffffffffffffff160217905550565b600060c960009054906101000a900473ffffffffffffffffffffffffffffffffffffffff16905090565b6060609d8054600181600116156101000203166002900480601f0160208091040260200160405190810160405280929190818152602001828054600181600116156101000203166002900480156119965780601f1061196b57610100808354040283529160200191611996565b820191906000526020600020905b81548152906001019060200180831161197957829003601f168201915b5050505050905090565b6119a86124db565b73ffffffffffffffffffffffffffffffffffffffff168273ffffffffffffffffffffffffffffffffffffffff161415611a49576040517f08c379a00000000000000000000000000000000000000000000000000000000081526004018080602001828103825260198152602001807f4552433732313a20617070726f766520746f2063616c6c65720000000000000081525060200191505060405180910390fd5b80609b6000611a566124db565b73ffffffffffffffffffffffffffffffffffffffff1673ffffffffffffffffffffffffffffffffffffffff16815260200190815260200160002060008473ffffffffffffffffffffffffffffffffffffffff1673ffffffffffffffffffffffffffffffffffffffff16815260200190815260200160002060006101000a81548160ff0219169083151502179055508173ffffffffffffffffffffffffffffffffffffffff16611b036124db565b73ffffffffffffffffffffffffffffffffffffffff167f17307eab39ab6107e8899845ad3d59bd9653f200f220920489ca2b5937696c318360405180821515815260200191505060405180910390a35050565b6000611b606124db565b73ffffffffffffffffffffffffffffffffffffffff1660c960009054906101000a900473ffffffffffffffffffffffffffffffffffffffff1673ffffffffffffffffffffffffffffffffffffffff1614611c22576040517f08c379a00000000000000000000000000000000000000000000000000000000081526004018080602001828103825260208152602001807f4f776e61626c653a2063616c6c6572206973206e6f7420746865206f776e657281525060200191505060405180910390fd5b611c2c60fc6125dd565b6000611c3860fc6125b1565b9050604051806040016040528085858080601f016020809104026020016040519081016040528093929190818152602001838380828437600081840152601f19601f820116905080830192505050505050508152602001600081525060fe60008381526020019081526020016000206000820151816000019080519060200190611cc392919061395c565b50602082015181600101559050507f5d2c74c9f600a456a5921186bf924865c75936336adfcfd63cb87ebf83f4d93a81858560405180848152602001806020018281038252848482818152602001925080828437600081840152601f19601f82011690508083019250505094505050505060405180910390a18091505092915050565b611d57611d516124db565b8361267d565b611dac576040517f08c379a0000000000000000000000000000000000000000000000000000000008152600401808060200182810382526031815260200180613c8a6031913960400191505060405180910390fd5b611db884848484612a2e565b50505050565b6060611dc9826124be565b611e1e576040517f08c379a000000000000000000000000000000000000000000000000000000000815260040180806020018281038252602f815260200180613c3a602f913960400191505060405180910390fd5b6060609e60008481526020019081526020016000208054600181600116156101000203166002900480601f016020809104026020016040519081016040528092919081815260200182805460018160011615610100020316600290048015611ec75780601f10611e9c57610100808354040283529160200191611ec7565b820191906000526020600020905b815481529060010190602001808311611eaa57829003601f168201915b505050505090506000609f8054600181600116156101000203166002900490501415611ef657809150506120a2565b600081511115611fcf57609f816040516020018083805460018160011615610100020316600290048015611f615780601f10611f3f576101008083540402835291820191611f61565b820191906000526020600020905b815481529060010190602001808311611f4d575b505082805190602001908083835b60208310611f925780518252602082019150602081019050602083039250611f6f565b6001836020036101000a038019825116818451168082178552505050505050905001925050506040516020818303038152906040529150506120a2565b609f611fda84612aa0565b60405160200180838054600181600116156101000203166002900480156120385780601f10612016576101008083540402835291820191612038565b820191906000526020600020905b815481529060010190602001808311612024575b505082805190602001908083835b602083106120695780518252602082019150602081019050602083039250612046565b6001836020036101000a038019825116818451168082178552505050505050905001925050506040516020818303038152906040529150505b919050565b6000609b60008473ffffffffffffffffffffffffffffffffffffffff1673ffffffffffffffffffffffffffffffffffffffff16815260200190815260200160002060008373ffffffffffffffffffffffffffffffffffffffff1673ffffffffffffffffffffffffffffffffffffffff16815260200190815260200160002060009054906101000a900460ff16905092915050565b6121436124db565b73ffffffffffffffffffffffffffffffffffffffff1660c960009054906101000a900473ffffffffffffffffffffffffffffffffffffffff1673ffffffffffffffffffffffffffffffffffffffff1614612205576040517f08c379a00000000000000000000000000000000000000000000000000000000081526004018080602001828103825260208152602001807f4f776e61626c653a2063616c6c6572206973206e6f7420746865206f776e657281525060200191505060405180910390fd5b600073ffffffffffffffffffffffffffffffffffffffff168173ffffffffffffffffffffffffffffffffffffffff16141561228b576040517f08c379a0000000000000000000000000000000000000000000000000000000008152600401808060200182810382526026815260200180613a686026913960400191505060405180910390fd5b8073ffffffffffffffffffffffffffffffffffffffff1660c960009054906101000a900473ffffffffffffffffffffffffffffffffffffffff1673ffffffffffffffffffffffffffffffffffffffff167f8be0079c531659141344cd1fd0a4f28419497f9722a3daafe3b4186f6b6457e060405160405180910390a38060c960006101000a81548173ffffffffffffffffffffffffffffffffffffffff021916908373ffffffffffffffffffffffffffffffffffffffff16021790555050565b600060019054906101000a900460ff168061236a5750612369612be7565b5b80612380575060008054906101000a900460ff16155b6123d5576040517f08c379a000000000000000000000000000000000000000000000000000000000815260040180806020018281038252602e815260200180613be3602e913960400191505060405180910390fd5b60008060019054906101000a900460ff161590508015612425576001600060016101000a81548160ff02191690831515021790555060016000806101000a81548160ff0219169083151502179055505b6124996040518060400160405280600c81526020017f42726967687420576176657300000000000000000000000000000000000000008152506040518060400160405280600481526020017f7e42577e00000000000000000000000000000000000000000000000000000000815250612bfe565b80156124ba5760008060016101000a81548160ff0219169083151502179055505b5050565b60006124d4826098612d5c90919063ffffffff16565b9050919050565b600033905090565b81609a600083815260200190815260200160002060006101000a81548173ffffffffffffffffffffffffffffffffffffffff021916908373ffffffffffffffffffffffffffffffffffffffff160217905550808273ffffffffffffffffffffffffffffffffffffffff166125568361159b565b73ffffffffffffffffffffffffffffffffffffffff167f8c5be1e5ebec7d5bd14f71427d1e84f3dd0314c0f7b2291e5b200ac8c7c3b92560405160405180910390a45050565b60006125aa82600001612d76565b9050919050565b600081600001549050919050565b6125d9828260405180602001604052806000815250612d87565b5050565b6001816000016000828254019250508190555050565b6125fc826124be565b612651576040517f08c379a000000000000000000000000000000000000000000000000000000000815260040180806020018281038252602c815260200180613bb7602c913960400191505060405180910390fd5b80609e6000848152602001908152602001600020908051906020019061267892919061395c565b505050565b6000612688826124be565b6126dd576040517f08c379a000000000000000000000000000000000000000000000000000000000815260040180806020018281038252602c815260200180613ab2602c913960400191505060405180910390fd5b60006126e88361159b565b90508073ffffffffffffffffffffffffffffffffffffffff168473ffffffffffffffffffffffffffffffffffffffff16148061275757508373ffffffffffffffffffffffffffffffffffffffff1661273f84610e23565b73ffffffffffffffffffffffffffffffffffffffff16145b80612768575061276781856120a7565b5b91505092915050565b8273ffffffffffffffffffffffffffffffffffffffff166127918261159b565b73ffffffffffffffffffffffffffffffffffffffff16146127fd576040517f08c379a0000000000000000000000000000000000000000000000000000000008152600401808060200182810382526029815260200180613c116029913960400191505060405180910390fd5b600073ffffffffffffffffffffffffffffffffffffffff168273ffffffffffffffffffffffffffffffffffffffff161415612883576040517f08c379a0000000000000000000000000000000000000000000000000000000008152600401808060200182810382526024815260200180613a8e6024913960400191505060405180910390fd5b61288e838383612df8565b6128996000826124e3565b6128ea81609760008673ffffffffffffffffffffffffffffffffffffffff1673ffffffffffffffffffffffffffffffffffffffff168152602001908152602001600020612dfd90919063ffffffff16565b5061293c81609760008573ffffffffffffffffffffffffffffffffffffffff1673ffffffffffffffffffffffffffffffffffffffff168152602001908152602001600020612e1790919063ffffffff16565b5061295381836098612e319092919063ffffffff16565b50808273ffffffffffffffffffffffffffffffffffffffff168473ffffffffffffffffffffffffffffffffffffffff167fddf252ad1be2c89b69c2b068fc378daa952ba7f163c4a11628f55a4df523b3ef60405160405180910390a4505050565b60006129c38360000183612e66565b60001c905092915050565b6000806000806129e18660000186612ee9565b915091508160001c8160001c9350935050509250929050565b6000612a0d846000018460001b84612f82565b60001c90509392505050565b6000612a2782600001613078565b9050919050565b612a39848484612771565b612a4584848484613089565b612a9a576040517f08c379a0000000000000000000000000000000000000000000000000000000008152600401808060200182810382526032815260200180613a366032913960400191505060405180910390fd5b50505050565b60606000821415612ae8576040518060400160405280600181526020017f30000000000000000000000000000000000000000000000000000000000000008152509050612be2565b600082905060005b60008214612b12578080600101915050600a8281612b0a57fe5b049150612af0565b60608167ffffffffffffffff81118015612b2b57600080fd5b506040519080825280601f01601f191660200182016040528015612b5e5781602001600182028036833780820191505090505b50905060006001830390508593505b60008414612bda57600a8481612b7f57fe5b0660300160f81b82828060019003935081518110612b9957fe5b60200101907effffffffffffffffffffffffffffffffffffffffffffffffffffffffffffff1916908160001a905350600a8481612bd257fe5b049350612b6d565b819450505050505b919050565b6000803090506000813b9050600081149250505090565b600060019054906101000a900460ff1680612c1d5750612c1c612be7565b5b80612c33575060008054906101000a900460ff16155b612c88576040517f08c379a000000000000000000000000000000000000000000000000000000000815260040180806020018281038252602e815260200180613be3602e913960400191505060405180910390fd5b60008060019054906101000a900460ff161590508015612cd8576001600060016101000a81548160ff02191690831515021790555060016000806101000a81548160ff0219169083151502179055505b82609c9080519060200190612cee92919061395c565b5081609d9080519060200190612d0592919061395c565b50612d166380ac58cd60e01b613380565b612d26635b5e139f60e01b613380565b612d3663780e9d6360e01b613380565b8015612d575760008060016101000a81548160ff0219169083151502179055505b505050565b6000612d6e836000018360001b613489565b905092915050565b600081600001805490509050919050565b612d9183836134ac565b612d9e6000848484613089565b612df3576040517f08c379a0000000000000000000000000000000000000000000000000000000008152600401808060200182810382526032815260200180613a366032913960400191505060405180910390fd5b505050565b505050565b6000612e0f836000018360001b6136a0565b905092915050565b6000612e29836000018360001b613788565b905092915050565b6000612e5d846000018460001b8473ffffffffffffffffffffffffffffffffffffffff1660001b6137f8565b90509392505050565b600081836000018054905011612ec7576040517f08c379a0000000000000000000000000000000000000000000000000000000008152600401808060200182810382526022815260200180613a146022913960400191505060405180910390fd5b826000018281548110612ed657fe5b9060005260206000200154905092915050565b60008082846000018054905011612f4b576040517f08c379a0000000000000000000000000000000000000000000000000000000008152600401808060200182810382526022815260200180613b696022913960400191505060405180910390fd5b6000846000018481548110612f5c57fe5b906000526020600020906002020190508060000154816001015492509250509250929050565b60008084600101600085815260200190815260200160002054905060008114158390613049576040517f08c379a00000000000000000000000000000000000000000000000000000000081526004018080602001828103825283818151815260200191508051906020019080838360005b8381101561300e578082015181840152602081019050612ff3565b50505050905090810190601f16801561303b5780820380516001836020036101000a031916815260200191505b509250505060405180910390fd5b5084600001600182038154811061305c57fe5b9060005260206000209060020201600101549150509392505050565b600081600001805490509050919050565b60006130aa8473ffffffffffffffffffffffffffffffffffffffff166138d4565b6130b75760019050613378565b600060608573ffffffffffffffffffffffffffffffffffffffff1663150b7a0260e01b6130e26124db565b898888604051602401808573ffffffffffffffffffffffffffffffffffffffff1681526020018473ffffffffffffffffffffffffffffffffffffffff16815260200183815260200180602001828103825283818151815260200191508051906020019080838360005b8381101561316657808201518184015260208101905061314b565b50505050905090810190601f1680156131935780820380516001836020036101000a031916815260200191505b5095505050505050604051602081830303815290604052907bffffffffffffffffffffffffffffffffffffffffffffffffffffffff19166020820180517bffffffffffffffffffffffffffffffffffffffffffffffffffffffff83818316178352505050506040518082805190602001908083835b6020831061322b5780518252602082019150602081019050602083039250613208565b6001836020036101000a0380198251168184511680821785525050505050509050019150506000604051808303816000865af19150503d806000811461328d576040519150601f19603f3d011682016040523d82523d6000602084013e613292565b606091505b509150915081613300576000815111156132af5780518082602001fd5b6040517f08c379a0000000000000000000000000000000000000000000000000000000008152600401808060200182810382526032815260200180613a366032913960400191505060405180910390fd5b600081806020019051602081101561331757600080fd5b8101908080519060200190929190505050905063150b7a0260e01b7bffffffffffffffffffffffffffffffffffffffffffffffffffffffff1916817bffffffffffffffffffffffffffffffffffffffffffffffffffffffff19161493505050505b949350505050565b63ffffffff60e01b817bffffffffffffffffffffffffffffffffffffffffffffffffffffffff1916141561341c576040517f08c379a000000000000000000000000000000000000000000000000000000000815260040180806020018281038252601c8152602001807f4552433136353a20696e76616c696420696e746572666163652069640000000081525060200191505060405180910390fd5b600160656000837bffffffffffffffffffffffffffffffffffffffffffffffffffffffff19167bffffffffffffffffffffffffffffffffffffffffffffffffffffffff1916815260200190815260200160002060006101000a81548160ff02191690831515021790555050565b600080836001016000848152602001908152602001600020541415905092915050565b600073ffffffffffffffffffffffffffffffffffffffff168273ffffffffffffffffffffffffffffffffffffffff16141561354f576040517f08c379a00000000000000000000000000000000000000000000000000000000081526004018080602001828103825260208152602001807f4552433732313a206d696e7420746f20746865207a65726f206164647265737381525060200191505060405180910390fd5b613558816124be565b156135cb576040517f08c379a000000000000000000000000000000000000000000000000000000000815260040180806020018281038252601c8152602001807f4552433732313a20746f6b656e20616c7265616479206d696e7465640000000081525060200191505060405180910390fd5b6135d760008383612df8565b61362881609760008573ffffffffffffffffffffffffffffffffffffffff1673ffffffffffffffffffffffffffffffffffffffff168152602001908152602001600020612e1790919063ffffffff16565b5061363f81836098612e319092919063ffffffff16565b50808273ffffffffffffffffffffffffffffffffffffffff16600073ffffffffffffffffffffffffffffffffffffffff167fddf252ad1be2c89b69c2b068fc378daa952ba7f163c4a11628f55a4df523b3ef60405160405180910390a45050565b6000808360010160008481526020019081526020016000205490506000811461377c57600060018203905060006001866000018054905003905060008660000182815481106136eb57fe5b906000526020600020015490508087600001848154811061370857fe5b906000526020600020018190555060018301876001016000838152602001908152602001600020819055508660000180548061374057fe5b60019003818190600052602060002001600090559055866001016000878152602001908152602001600020600090556001945050505050613782565b60009150505b92915050565b6000613794838361391f565b6137ed5782600001829080600181540180825580915050600190039060005260206000200160009091909190915055826000018054905083600101600084815260200190815260200160002081905550600190506137f2565b600090505b92915050565b600080846001016000858152602001908152602001600020549050600081141561389f578460000160405180604001604052808681526020018581525090806001815401808255809150506001900390600052602060002090600202016000909190919091506000820151816000015560208201518160010155505084600001805490508560010160008681526020019081526020016000208190555060019150506138cd565b828560000160018303815481106138b257fe5b90600052602060002090600202016001018190555060009150505b9392505050565b60008060007fc5d2460186f7233c927e7db2dcc703c0e500b653ca82273b7bfad8045d85a47060001b9050833f915080821415801561391657506000801b8214155b92505050919050565b600080836001016000848152602001908152602001600020541415905092915050565b604051806040016040528060608152602001600081525090565b828054600181600116156101000203166002900490600052602060002090601f016020900481019282601f1061399d57805160ff19168380011785556139cb565b828001600101855582156139cb579182015b828111156139ca5782518255916020019190600101906139af565b5b5090506139d891906139f6565b5090565b604051806040016040528060608152602001600081525090565b5b80821115613a0f5760008160009055506001016139f7565b509056fe456e756d657261626c655365743a20696e646578206f7574206f6620626f756e64734552433732313a207472616e7366657220746f206e6f6e20455243373231526563656976657220696d706c656d656e7465724f776e61626c653a206e6577206f776e657220697320746865207a65726f20616464726573734552433732313a207472616e7366657220746f20746865207a65726f20616464726573734552433732313a206f70657261746f7220717565727920666f72206e6f6e6578697374656e7420746f6b656e4552433732313a20617070726f76652063616c6c6572206973206e6f74206f776e6572206e6f7220617070726f76656420666f7220616c6c4552433732313a2062616c616e636520717565727920666f7220746865207a65726f20616464726573734552433732313a206f776e657220717565727920666f72206e6f6e6578697374656e7420746f6b656e456e756d657261626c654d61703a20696e646578206f7574206f6620626f756e64734552433732313a20617070726f76656420717565727920666f72206e6f6e6578697374656e7420746f6b656e4552433732314d657461646174613a2055524920736574206f66206e6f6e6578697374656e7420746f6b656e436f6e747261637420696e7374616e63652068617320616c7265616479206265656e20696e697469616c697a65644552433732313a207472616e73666572206f6620746f6b656e2074686174206973206e6f74206f776e4552433732314d657461646174613a2055524920717565727920666f72206e6f6e6578697374656e7420746f6b656e4552433732313a20617070726f76616c20746f2063757272656e74206f776e65724552433732313a207472616e736665722063616c6c6572206973206e6f74206f776e6572206e6f7220617070726f766564a2646970667358221220431062b14fb66241c0d01e52fb04aeb139fba4ccabd1528ef7475b86b41e840a64736f6c634300060c0033",
  "compiler": {
    "name": "solc",
    "version": "0.6.12+commit.27d51765.Emscripten.clang",
    "optimizer": {
      "enabled": false,
      "runs": 200
    },
    "evmVersion": "petersburg"
  }
}